{
  "contractName": "Distributor",
  "abi": [
    {
      "inputs": [],
      "stateMutability": "nonpayable",
      "type": "constructor"
    },
    {
      "anonymous": false,
      "inputs": [
        {
          "indexed": true,
          "internalType": "address",
          "name": "account",
          "type": "address"
        }
      ],
      "name": "DistributorAdded",
      "type": "event"
    },
    {
      "anonymous": false,
      "inputs": [
        {
          "indexed": true,
          "internalType": "address",
          "name": "account",
          "type": "address"
        }
      ],
      "name": "DistributorRemoved",
      "type": "event"
    },
    {
      "inputs": [
        {
          "internalType": "address",
          "name": "account",
          "type": "address"
        }
      ],
      "name": "isDistributor",
      "outputs": [
        {
          "internalType": "bool",
          "name": "",
          "type": "bool"
        }
      ],
      "stateMutability": "view",
      "type": "function",
      "constant": true
    },
    {
      "inputs": [
        {
          "internalType": "address",
          "name": "account",
          "type": "address"
        }
      ],
      "name": "addDistributor",
      "outputs": [],
      "stateMutability": "nonpayable",
      "type": "function"
    },
    {
      "inputs": [],
      "name": "renounceDistributor",
      "outputs": [],
      "stateMutability": "nonpayable",
      "type": "function"
    }
  ],
  "bytecode": "0x608060405234801561001057600080fd5b506100203361002560201b60201c565b6101c7565b61003d81600061008360201b6101181790919060201c565b8073ffffffffffffffffffffffffffffffffffffffff167fddbf200aa634dc3fb81cfd68583dd1040d1c751d335e1d86b631bde3e977fea860405160405180910390a250565b600073ffffffffffffffffffffffffffffffffffffffff168173ffffffffffffffffffffffffffffffffffffffff1614156100bd57600080fd5b6100cd828261013560201b60201c565b156100d757600080fd5b60018260000160008373ffffffffffffffffffffffffffffffffffffffff1673ffffffffffffffffffffffffffffffffffffffff16815260200190815260200160002060006101000a81548160ff0219169083151502179055505050565b60008073ffffffffffffffffffffffffffffffffffffffff168273ffffffffffffffffffffffffffffffffffffffff16141561017057600080fd5b8260000160008373ffffffffffffffffffffffffffffffffffffffff1673ffffffffffffffffffffffffffffffffffffffff16815260200190815260200160002060009054906101000a900460ff16905092915050565b610554806101d66000396000f3fe608060405234801561001057600080fd5b50600436106100415760003560e01c8063644241db146100465780637250e224146100505780638f0c86fa1461006c575b600080fd5b61004e61009c565b005b61006a60048036038101906100659190610418565b6100a7565b005b61008660048036038101906100819190610418565b6100fb565b6040516100939190610460565b60405180910390f35b6100a5336101c4565b565b6100b0336100fb565b6100ef576040517f08c379a00000000000000000000000000000000000000000000000000000000081526004016100e6906104fe565b60405180910390fd5b6100f88161021e565b50565b600061011182600061027890919063ffffffff16565b9050919050565b600073ffffffffffffffffffffffffffffffffffffffff168173ffffffffffffffffffffffffffffffffffffffff16141561015257600080fd5b61015c8282610278565b1561016657600080fd5b60018260000160008373ffffffffffffffffffffffffffffffffffffffff1673ffffffffffffffffffffffffffffffffffffffff16815260200190815260200160002060006101000a81548160ff0219169083151502179055505050565b6101d881600061030a90919063ffffffff16565b8073ffffffffffffffffffffffffffffffffffffffff167f126174f6cf49c81cdb4a9214c6b8f037bef55b4ec31e4fc776cea2a1c8a88d5960405160405180910390a250565b61023281600061011890919063ffffffff16565b8073ffffffffffffffffffffffffffffffffffffffff167fddbf200aa634dc3fb81cfd68583dd1040d1c751d335e1d86b631bde3e977fea860405160405180910390a250565b60008073ffffffffffffffffffffffffffffffffffffffff168273ffffffffffffffffffffffffffffffffffffffff1614156102b357600080fd5b8260000160008373ffffffffffffffffffffffffffffffffffffffff1673ffffffffffffffffffffffffffffffffffffffff16815260200190815260200160002060009054906101000a900460ff16905092915050565b600073ffffffffffffffffffffffffffffffffffffffff168173ffffffffffffffffffffffffffffffffffffffff16141561034457600080fd5b61034e8282610278565b61035757600080fd5b60008260000160008373ffffffffffffffffffffffffffffffffffffffff1673ffffffffffffffffffffffffffffffffffffffff16815260200190815260200160002060006101000a81548160ff0219169083151502179055505050565b600080fd5b600073ffffffffffffffffffffffffffffffffffffffff82169050919050565b60006103e5826103ba565b9050919050565b6103f5816103da565b811461040057600080fd5b50565b600081359050610412816103ec565b92915050565b60006020828403121561042e5761042d6103b5565b5b600061043c84828501610403565b91505092915050565b60008115159050919050565b61045a81610445565b82525050565b60006020820190506104756000830184610451565b92915050565b600082825260208201905092915050565b7f53656e64657220646f65736e277420686176652074686520646973747269627560008201527f746f7220726f6c652e0000000000000000000000000000000000000000000000602082015250565b60006104e860298361047b565b91506104f38261048c565b604082019050919050565b60006020820190508181036000830152610517816104db565b905091905056fea26469706673582212200b5bf9e7aea848b4822603310dfedee605dd538c476cb2a96149e405961eac0864736f6c634300080a0033",
  "immutableReferences": {},
  "source": "// SPDX-License-Identifier: UNLICENSED\r\npragma solidity >=0.4.22 <0.9.0;\r\n\r\nimport \"./Roles.sol\";\r\n\r\ncontract Distributor {\r\n    using Roles for Roles.Role;\r\n\r\n    event DistributorAdded(address indexed account);\r\n    event DistributorRemoved(address indexed account);\r\n\r\n    Roles.Role private distributors;\r\n\r\n    constructor() {\r\n        _addDistributor(msg.sender);\r\n    }\r\n\r\n    function _addDistributor(address account) internal {\r\n        distributors.add(account);\r\n\r\n        emit DistributorAdded(account);\r\n    }\r\n\r\n    function _removeDistributor(address account) internal {\r\n        distributors.remove(account);\r\n\r\n        emit DistributorRemoved(account);\r\n    }\r\n\r\n    function isDistributor(address account) public view returns (bool) {\r\n        return distributors.has(account);\r\n    }\r\n\r\n    modifier onlyDistributor() {\r\n        require(\r\n            isDistributor(msg.sender),\r\n            \"Sender doesn't have the distributor role.\"\r\n        );\r\n        _;\r\n    }\r\n\r\n    function addDistributor(address account) public onlyDistributor {\r\n        _addDistributor(account);\r\n    }\r\n\r\n    function renounceDistributor() public {\r\n        _removeDistributor(msg.sender);\r\n    }\r\n}\r\n",
  "sourcePath": "C:\\Users\\harsh\\OneDrive\\Desktop\\405Found_LOC\\contracts\\roles\\Distributor.sol",
  "compiler": {
    "name": "solc",
    "version": "0.8.10+commit.fc410830.Emscripten.clang"
  },
  "schemaVersion": "3.4.13",
  "updatedAt": "2023-03-12T19:28:43.578Z",
  "networkType": "ethereum",
  "devdoc": {
    "kind": "dev",
    "methods": {},
    "version": 1
  },
  "userdoc": {
    "kind": "user",
    "methods": {},
    "version": 1
  }
}