{
  "contractName": "Manufacturer",
  "abi": [
    {
      "inputs": [],
      "stateMutability": "nonpayable",
      "type": "constructor"
    },
    {
      "anonymous": false,
      "inputs": [
        {
          "indexed": true,
          "internalType": "address",
          "name": "account",
          "type": "address"
        }
      ],
      "name": "ManufacturerAdded",
      "type": "event"
    },
    {
      "anonymous": false,
      "inputs": [
        {
          "indexed": true,
          "internalType": "address",
          "name": "account",
          "type": "address"
        }
      ],
      "name": "ManufacturerRemoved",
      "type": "event"
    },
    {
      "inputs": [
        {
          "internalType": "address",
          "name": "account",
          "type": "address"
        }
      ],
      "name": "isManufacturer",
      "outputs": [
        {
          "internalType": "bool",
          "name": "",
          "type": "bool"
        }
      ],
      "stateMutability": "view",
      "type": "function",
      "constant": true
    },
    {
      "inputs": [
        {
          "internalType": "address",
          "name": "account",
          "type": "address"
        }
      ],
      "name": "addManufacturer",
      "outputs": [],
      "stateMutability": "nonpayable",
      "type": "function"
    },
    {
      "inputs": [],
      "name": "renounceManufacturer",
      "outputs": [],
      "stateMutability": "nonpayable",
      "type": "function"
    }
  ],
  "bytecode": "0x608060405234801561001057600080fd5b506100203361002560201b60201c565b6101c7565b61003d81600061008360201b6101261790919060201c565b8073ffffffffffffffffffffffffffffffffffffffff167f561138658ca49a8540dc70dcfe64c9026c1c5b9344642242dd6562970f9c127860405160405180910390a250565b600073ffffffffffffffffffffffffffffffffffffffff168173ffffffffffffffffffffffffffffffffffffffff1614156100bd57600080fd5b6100cd828261013560201b60201c565b156100d757600080fd5b60018260000160008373ffffffffffffffffffffffffffffffffffffffff1673ffffffffffffffffffffffffffffffffffffffff16815260200190815260200160002060006101000a81548160ff0219169083151502179055505050565b60008073ffffffffffffffffffffffffffffffffffffffff168273ffffffffffffffffffffffffffffffffffffffff16141561017057600080fd5b8260000160008373ffffffffffffffffffffffffffffffffffffffff1673ffffffffffffffffffffffffffffffffffffffff16815260200190815260200160002060009054906101000a900460ff16905092915050565b610562806101d66000396000f3fe608060405234801561001057600080fd5b50600436106100415760003560e01c806317d4a491146100465780635f8a5afa14610076578063de07f34e14610092575b600080fd5b610060600480360381019061005b9190610426565b61009c565b60405161006d919061046e565b60405180910390f35b610090600480360381019061008b9190610426565b6100b9565b005b61009a61011b565b005b60006100b28260006101d290919063ffffffff16565b9050919050565b6100c23361009c565b610101576040517f08c379a00000000000000000000000000000000000000000000000000000000081526004016100f89061050c565b60405180910390fd5b61010a8161009c565b6101185761011781610264565b5b50565b610124336102be565b565b600073ffffffffffffffffffffffffffffffffffffffff168173ffffffffffffffffffffffffffffffffffffffff16141561016057600080fd5b61016a82826101d2565b1561017457600080fd5b60018260000160008373ffffffffffffffffffffffffffffffffffffffff1673ffffffffffffffffffffffffffffffffffffffff16815260200190815260200160002060006101000a81548160ff0219169083151502179055505050565b60008073ffffffffffffffffffffffffffffffffffffffff168273ffffffffffffffffffffffffffffffffffffffff16141561020d57600080fd5b8260000160008373ffffffffffffffffffffffffffffffffffffffff1673ffffffffffffffffffffffffffffffffffffffff16815260200190815260200160002060009054906101000a900460ff16905092915050565b61027881600061012690919063ffffffff16565b8073ffffffffffffffffffffffffffffffffffffffff167f561138658ca49a8540dc70dcfe64c9026c1c5b9344642242dd6562970f9c127860405160405180910390a250565b6102d281600061031890919063ffffffff16565b8073ffffffffffffffffffffffffffffffffffffffff167f2fed5abf6a80d6dfe30b4895481b2fc5d7dce5f8f7b931832f4a2947d5040c7f60405160405180910390a250565b600073ffffffffffffffffffffffffffffffffffffffff168173ffffffffffffffffffffffffffffffffffffffff16141561035257600080fd5b61035c82826101d2565b61036557600080fd5b60008260000160008373ffffffffffffffffffffffffffffffffffffffff1673ffffffffffffffffffffffffffffffffffffffff16815260200190815260200160002060006101000a81548160ff0219169083151502179055505050565b600080fd5b600073ffffffffffffffffffffffffffffffffffffffff82169050919050565b60006103f3826103c8565b9050919050565b610403816103e8565b811461040e57600080fd5b50565b600081359050610420816103fa565b92915050565b60006020828403121561043c5761043b6103c3565b5b600061044a84828501610411565b91505092915050565b60008115159050919050565b61046881610453565b82525050565b6000602082019050610483600083018461045f565b92915050565b600082825260208201905092915050565b7f53656e64657220646f65736e2774206861766520746865206d616e756661637460008201527f7572657220726f6c652e00000000000000000000000000000000000000000000602082015250565b60006104f6602a83610489565b91506105018261049a565b604082019050919050565b60006020820190508181036000830152610525816104e9565b905091905056fea2646970667358221220db681b5de39c6e4e70c8ea4cbd03b1a23ba6d23628bead5d4e1eae3be7a5eed064736f6c634300080a0033",
  "immutableReferences": {},
  "source": "// SPDX-License-Identifier: UNLICENSED\r\npragma solidity >=0.4.22 <0.9.0;\r\n\r\nimport \"./Roles.sol\";\r\n\r\ncontract Manufacturer {\r\n    using Roles for Roles.Role;\r\n\r\n    event ManufacturerAdded(address indexed account);\r\n    event ManufacturerRemoved(address indexed account);\r\n\r\n    Roles.Role private manufacturers;\r\n\r\n    constructor() {\r\n        _addManufacturer(msg.sender);\r\n    }\r\n\r\n    function _addManufacturer(address account) internal {\r\n        manufacturers.add(account);\r\n        emit ManufacturerAdded(account);\r\n    }\r\n\r\n    function _removeManufacturer(address account) internal {\r\n        manufacturers.remove(account);\r\n        emit ManufacturerRemoved(account);\r\n    }\r\n\r\n    function isManufacturer(address account) public view returns (bool) {\r\n        return manufacturers.has(account);\r\n    }\r\n\r\n    modifier onlyManufacturer() {\r\n        require(isManufacturer(msg.sender), \"Sender doesn't have the manufacturer role.\");\r\n        _;\r\n    }\r\n\r\n    function addManufacturer(address account) public onlyManufacturer {\r\n        if (!isManufacturer(account))\r\n            _addManufacturer(account);\r\n    }\r\n\r\n    function renounceManufacturer() public {\r\n        _removeManufacturer(msg.sender);\r\n    }\r\n}\r\n",
  "sourcePath": "C:\\Users\\harsh\\OneDrive\\Desktop\\405Found_LOC\\contracts\\roles\\Manufacturer.sol",
  "compiler": {
    "name": "solc",
    "version": "0.8.10+commit.fc410830.Emscripten.clang"
  },
  "schemaVersion": "3.4.13",
  "updatedAt": "2023-03-12T19:28:43.572Z",
  "networkType": "ethereum",
  "devdoc": {
    "kind": "dev",
    "methods": {},
    "version": 1
  },
  "userdoc": {
    "kind": "user",
    "methods": {},
    "version": 1
  }
}